{
  "contractName": "Oracle",
  "abi": [
    {
      "constant": true,
      "inputs": [],
      "name": "owner",
      "outputs": [
        {
          "name": "",
          "type": "address"
        }
      ],
      "payable": false,
      "stateMutability": "view",
      "type": "function"
    },
    {
      "inputs": [],
      "payable": false,
      "stateMutability": "nonpayable",
      "type": "constructor"
    },
    {
      "anonymous": false,
      "inputs": [],
      "name": "CallbackGetEthToUsdPrice",
      "type": "event"
    },
    {
      "anonymous": false,
      "inputs": [],
      "name": "CallbackGetBtcToUsdPrice",
      "type": "event"
    },
    {
      "constant": false,
      "inputs": [],
      "name": "updatePrices",
      "outputs": [],
      "payable": false,
      "stateMutability": "nonpayable",
      "type": "function"
    },
    {
      "constant": true,
      "inputs": [],
      "name": "getEthToUsdPrice",
      "outputs": [
        {
          "name": "",
          "type": "uint256"
        }
      ],
      "payable": false,
      "stateMutability": "view",
      "type": "function"
    },
    {
      "constant": true,
      "inputs": [],
      "name": "getBtcToUsdPrice",
      "outputs": [
        {
          "name": "",
          "type": "uint256"
        }
      ],
      "payable": false,
      "stateMutability": "view",
      "type": "function"
    },
    {
      "constant": false,
      "inputs": [
        {
          "name": "_ethToUsd",
          "type": "uint256"
        }
      ],
      "name": "setEthToUsdPrice",
      "outputs": [],
      "payable": false,
      "stateMutability": "nonpayable",
      "type": "function"
    },
    {
      "constant": false,
      "inputs": [
        {
          "name": "_btcToUsd",
          "type": "uint256"
        }
      ],
      "name": "setBtcToUsdPrice",
      "outputs": [],
      "payable": false,
      "stateMutability": "nonpayable",
      "type": "function"
    }
  ],
  "bytecode": "0x608060405234801561001057600080fd5b50336000806101000a81548173ffffffffffffffffffffffffffffffffffffffff021916908373ffffffffffffffffffffffffffffffffffffffff160217905550610442806100606000396000f300608060405260043610610078576000357c0100000000000000000000000000000000000000000000000000000000900463ffffffff1680630ce21fa71461007d57806349dd1262146100aa5780638da5cb5b146100c1578063c70d5a4614610118578063c8fb61d014610143578063d3f7836e14610170575b600080fd5b34801561008957600080fd5b506100a86004803603810190808035906020019092919050505061019b565b005b3480156100b657600080fd5b506100bf61028f565b005b3480156100cd57600080fd5b506100d66102e9565b604051808273ffffffffffffffffffffffffffffffffffffffff1673ffffffffffffffffffffffffffffffffffffffff16815260200191505060405180910390f35b34801561012457600080fd5b5061012d61030e565b6040518082815260200191505060405180910390f35b34801561014f57600080fd5b5061016e60048036038101908080359060200190929190505050610318565b005b34801561017c57600080fd5b5061018561040c565b6040518082815260200191505060405180910390f35b6000809054906101000a900473ffffffffffffffffffffffffffffffffffffffff1673ffffffffffffffffffffffffffffffffffffffff163373ffffffffffffffffffffffffffffffffffffffff16141515610285576040517f08c379a00000000000000000000000000000000000000000000000000000000081526004018080602001828103825260288152602001807f4f6e6c79204f7261636c65204f776e65722063616e2063616c6c20746869732081526020017f66756e6374696f6e00000000000000000000000000000000000000000000000081525060400191505060405180910390fd5b8060028190555050565b7f8151d5fa0399066b51e4228856da25b04548bfea1b7e6898d3ffee2fc5d8a0ca60405160405180910390a17ff9e8a4e2b734cb683aa6918cc3c1967566572ab400bbffc0e59956ed97f61cf160405160405180910390a1565b6000809054906101000a900473ffffffffffffffffffffffffffffffffffffffff1681565b6000600254905090565b6000809054906101000a900473ffffffffffffffffffffffffffffffffffffffff1673ffffffffffffffffffffffffffffffffffffffff163373ffffffffffffffffffffffffffffffffffffffff16141515610402576040517f08c379a00000000000000000000000000000000000000000000000000000000081526004018080602001828103825260288152602001807f4f6e6c79204f7261636c65204f776e65722063616e2063616c6c20746869732081526020017f66756e6374696f6e00000000000000000000000000000000000000000000000081525060400191505060405180910390fd5b8060018190555050565b60006001549050905600a165627a7a72305820ae34c9a60bf35b085a647708cf800ed0fa399ce3a06b1bbd245bc821d8c8cfaa0029",
  "source": "pragma solidity ^0.4.24;\n\ncontract Oracle {\n\n    address public owner;\n\n    uint private ethToUsd;\n    uint private btcToUsd;\n\n    event CallbackGetEthToUsdPrice();\n    event CallbackGetBtcToUsdPrice();\n\n    constructor() public {\n        owner = msg.sender;\n    }\n\n    function updatePrices() public {\n        emit CallbackGetEthToUsdPrice();\n        emit CallbackGetBtcToUsdPrice();\n    }\n\n    function getEthToUsdPrice() external view returns (uint) {\n        return ethToUsd;\n    }\n    \n    function getBtcToUsdPrice() external view returns (uint) {\n        return btcToUsd;\n    }\n\n    // вызываются оракулом\n    function setEthToUsdPrice(uint _ethToUsd) public onlyOracle {\n        ethToUsd = _ethToUsd;\n    }\n\n    function setBtcToUsdPrice(uint _btcToUsd) public onlyOracle{\n        btcToUsd = _btcToUsd;\n    }\n    \n    modifier onlyOracle() {\n        require(msg.sender == owner, \"Only Oracle Owner can call this function\");\n        _;\n    }\n}\n",
  "sourcePath": "/Users/Amir/Desktop/Oracle/contracts/Oracle.sol",
  "compiler": {
    "name": "solc",
    "version": "0.4.24+commit.e67f0147.Emscripten.clang"
  },
  "schemaVersion": "2.0.1",
  "updatedAt": "2018-11-08T13:12:18.858Z"
}