{
  "contractName": "SimpleConverter",
  "abi": [
    {
      "constant": true,
      "inputs": [],
      "name": "deployedOracle",
      "outputs": [
        {
          "name": "",
          "type": "address"
        }
      ],
      "payable": false,
      "stateMutability": "view",
      "type": "function"
    },
    {
      "constant": false,
      "inputs": [
        {
          "name": "_addr",
          "type": "address"
        }
      ],
      "name": "setOracleAddress",
      "outputs": [],
      "payable": false,
      "stateMutability": "nonpayable",
      "type": "function"
    },
    {
      "constant": true,
      "inputs": [
        {
          "name": "_usdAmount",
          "type": "uint256"
        }
      ],
      "name": "convertUsdToEth",
      "outputs": [
        {
          "name": "",
          "type": "uint256"
        }
      ],
      "payable": false,
      "stateMutability": "view",
      "type": "function"
    },
    {
      "constant": true,
      "inputs": [
        {
          "name": "_usdAmount",
          "type": "uint256"
        }
      ],
      "name": "convertUsdToBtc",
      "outputs": [
        {
          "name": "",
          "type": "uint256"
        }
      ],
      "payable": false,
      "stateMutability": "view",
      "type": "function"
    },
    {
      "constant": true,
      "inputs": [
        {
          "name": "_ethAmount",
          "type": "uint256"
        }
      ],
      "name": "convertEthToBtc",
      "outputs": [
        {
          "name": "",
          "type": "uint256"
        }
      ],
      "payable": false,
      "stateMutability": "view",
      "type": "function"
    },
    {
      "constant": true,
      "inputs": [
        {
          "name": "_btcAmount",
          "type": "uint256"
        }
      ],
      "name": "convertBtcToEth",
      "outputs": [
        {
          "name": "",
          "type": "uint256"
        }
      ],
      "payable": false,
      "stateMutability": "view",
      "type": "function"
    },
    {
      "constant": true,
      "inputs": [],
      "name": "getEthToUsdPrice",
      "outputs": [
        {
          "name": "",
          "type": "uint256"
        }
      ],
      "payable": false,
      "stateMutability": "view",
      "type": "function"
    },
    {
      "constant": true,
      "inputs": [],
      "name": "getBtcToUsdPrice",
      "outputs": [
        {
          "name": "",
          "type": "uint256"
        }
      ],
      "payable": false,
      "stateMutability": "view",
      "type": "function"
    }
  ],
  "bytecode": "0x608060405234801561001057600080fd5b50610f15806100206000396000f30060806040526004361061008e576000357c0100000000000000000000000000000000000000000000000000000000900463ffffffff16806345d27fa814610093578063462c6ca4146100d45780634c69c00f14610115578063a3053e2a14610158578063c70d5a4614610199578063d33cf29f146101c4578063d3f7836e1461021b578063f774d41a14610246575b600080fd5b34801561009f57600080fd5b506100be60048036038101908080359060200190929190505050610287565b6040518082815260200191505060405180910390f35b3480156100e057600080fd5b506100ff60048036038101908080359060200190929190505050610528565b6040518082815260200191505060405180910390f35b34801561012157600080fd5b50610156600480360381019080803573ffffffffffffffffffffffffffffffffffffffff1690602001909291905050506107c9565b005b34801561016457600080fd5b506101836004803603810190808035906020019092919050505061080c565b6040518082815260200191505060405180910390f35b3480156101a557600080fd5b506101ae6109f2565b6040518082815260200191505060405180910390f35b3480156101d057600080fd5b506101d9610abe565b604051808273ffffffffffffffffffffffffffffffffffffffff1673ffffffffffffffffffffffffffffffffffffffff16815260200191505060405180910390f35b34801561022757600080fd5b50610230610ae3565b6040518082815260200191505060405180910390f35b34801561025257600080fd5b5061027160048036038101908080359060200190929190505050610c9b565b6040518082815260200191505060405180910390f35b60008060008060008073ffffffffffffffffffffffffffffffffffffffff166000809054906101000a900473ffffffffffffffffffffffffffffffffffffffff1673ffffffffffffffffffffffffffffffffffffffff161415151561037a576040517f08c379a00000000000000000000000000000000000000000000000000000000081526004018080602001828103825260288152602001807f53657420746865206465706c6f796564204f7261636c6520436f6e747261637481526020017f206164647265737300000000000000000000000000000000000000000000000081525060400191505060405180910390fd5b6000809054906101000a900473ffffffffffffffffffffffffffffffffffffffff1693508373ffffffffffffffffffffffffffffffffffffffff1663d3f7836e6040518163ffffffff167c0100000000000000000000000000000000000000000000000000000000028152600401602060405180830381600087803b15801561040257600080fd5b505af1158015610416573d6000803e3d6000fd5b505050506040513d602081101561042c57600080fd5b810190808051906020019092919050505092508373ffffffffffffffffffffffffffffffffffffffff1663c70d5a466040518163ffffffff167c0100000000000000000000000000000000000000000000000000000000028152600401602060405180830381600087803b1580156104a357600080fd5b505af11580156104b7573d6000803e3d6000fd5b505050506040513d60208110156104cd57600080fd5b810190808051906020019092919050505091506104f38284610e8190919063ffffffff16565b905061051d8161050f6298968089610eab90919063ffffffff16565b610eab90919063ffffffff16565b945050505050919050565b60008060008060008073ffffffffffffffffffffffffffffffffffffffff166000809054906101000a900473ffffffffffffffffffffffffffffffffffffffff1673ffffffffffffffffffffffffffffffffffffffff161415151561061b576040517f08c379a00000000000000000000000000000000000000000000000000000000081526004018080602001828103825260288152602001807f53657420746865206465706c6f796564204f7261636c6520436f6e747261637481526020017f206164647265737300000000000000000000000000000000000000000000000081525060400191505060405180910390fd5b6000809054906101000a900473ffffffffffffffffffffffffffffffffffffffff1693508373ffffffffffffffffffffffffffffffffffffffff1663d3f7836e6040518163ffffffff167c0100000000000000000000000000000000000000000000000000000000028152600401602060405180830381600087803b1580156106a357600080fd5b505af11580156106b7573d6000803e3d6000fd5b505050506040513d60208110156106cd57600080fd5b810190808051906020019092919050505092508373ffffffffffffffffffffffffffffffffffffffff1663c70d5a466040518163ffffffff167c0100000000000000000000000000000000000000000000000000000000028152600401602060405180830381600087803b15801561074457600080fd5b505af1158015610758573d6000803e3d6000fd5b505050506040513d602081101561076e57600080fd5b810190808051906020019092919050505091506107948383610e8190919063ffffffff16565b90506107be816107b06298968089610eab90919063ffffffff16565b610eab90919063ffffffff16565b945050505050919050565b806000806101000a81548173ffffffffffffffffffffffffffffffffffffffff021916908373ffffffffffffffffffffffffffffffffffffffff16021790555050565b60008060008073ffffffffffffffffffffffffffffffffffffffff166000809054906101000a900473ffffffffffffffffffffffffffffffffffffffff1673ffffffffffffffffffffffffffffffffffffffff16141515156108fc576040517f08c379a00000000000000000000000000000000000000000000000000000000081526004018080602001828103825260288152602001807f53657420746865206465706c6f796564204f7261636c6520436f6e747261637481526020017f206164647265737300000000000000000000000000000000000000000000000081525060400191505060405180910390fd5b6000809054906101000a900473ffffffffffffffffffffffffffffffffffffffff1691508173ffffffffffffffffffffffffffffffffffffffff1663d3f7836e6040518163ffffffff167c0100000000000000000000000000000000000000000000000000000000028152600401602060405180830381600087803b15801561098457600080fd5b505af1158015610998573d6000803e3d6000fd5b505050506040513d60208110156109ae57600080fd5b810190808051906020019092919050505090506109e9816109db6298968087610eab90919063ffffffff16565b610e8190919063ffffffff16565b92505050919050565b6000806000809054906101000a900473ffffffffffffffffffffffffffffffffffffffff1690508073ffffffffffffffffffffffffffffffffffffffff1663c70d5a466040518163ffffffff167c0100000000000000000000000000000000000000000000000000000000028152600401602060405180830381600087803b158015610a7d57600080fd5b505af1158015610a91573d6000803e3d6000fd5b505050506040513d6020811015610aa757600080fd5b810190808051906020019092919050505091505090565b6000809054906101000a900473ffffffffffffffffffffffffffffffffffffffff1681565b600080600073ffffffffffffffffffffffffffffffffffffffff166000809054906101000a900473ffffffffffffffffffffffffffffffffffffffff1673ffffffffffffffffffffffffffffffffffffffff1614151515610bd2576040517f08c379a00000000000000000000000000000000000000000000000000000000081526004018080602001828103825260288152602001807f53657420746865206465706c6f796564204f7261636c6520436f6e747261637481526020017f206164647265737300000000000000000000000000000000000000000000000081525060400191505060405180910390fd5b6000809054906101000a900473ffffffffffffffffffffffffffffffffffffffff1690508073ffffffffffffffffffffffffffffffffffffffff1663d3f7836e6040518163ffffffff167c0100000000000000000000000000000000000000000000000000000000028152600401602060405180830381600087803b158015610c5a57600080fd5b505af1158015610c6e573d6000803e3d6000fd5b505050506040513d6020811015610c8457600080fd5b810190808051906020019092919050505091505090565b60008060008073ffffffffffffffffffffffffffffffffffffffff166000809054906101000a900473ffffffffffffffffffffffffffffffffffffffff1673ffffffffffffffffffffffffffffffffffffffff1614151515610d8b576040517f08c379a00000000000000000000000000000000000000000000000000000000081526004018080602001828103825260288152602001807f53657420746865206465706c6f796564204f7261636c6520436f6e747261637481526020017f206164647265737300000000000000000000000000000000000000000000000081525060400191505060405180910390fd5b6000809054906101000a900473ffffffffffffffffffffffffffffffffffffffff1691508173ffffffffffffffffffffffffffffffffffffffff1663c70d5a466040518163ffffffff167c0100000000000000000000000000000000000000000000000000000000028152600401602060405180830381600087803b158015610e1357600080fd5b505af1158015610e27573d6000803e3d6000fd5b505050506040513d6020811015610e3d57600080fd5b81019080805190602001909291905050509050610e7881610e6a6298968087610eab90919063ffffffff16565b610e8190919063ffffffff16565b92505050919050565b600080600083111515610e9357600080fd5b8284811515610e9e57fe5b0490508091505092915050565b6000806000841415610ec05760009150610ee2565b8284029050828482811515610ed157fe5b04141515610ede57600080fd5b8091505b50929150505600a165627a7a7230582081e649773a8531d8636903da9e80605462054fc24423b375fcab80da4ef2b9570029",
  "source": "pragma solidity ^0.4.24;\n\nimport \"./OracleInterface.sol\";\nimport \"./Safemath.sol\";\n\ncontract SimpleConverter {\n    \n    using SafeMath for uint;\n    \n    address public deployedOracle;\n    \n    function setOracleAddress (address _addr) external {\n        deployedOracle = _addr;\n    }\n   \n    function convertUsdToEth(uint _usdAmount) external view usingOracle returns (uint) {\n        OracleInterface oracle = OracleInterface(deployedOracle);\n        uint ethToUsdPrice = oracle.getEthToUsdPrice();\n        return _usdAmount.mul(10000000).div(ethToUsdPrice); //divide the result by 100000, for 5num floating precision\n    }\n    \n    function convertUsdToBtc(uint _usdAmount) external view usingOracle returns (uint) {\n        OracleInterface oracle = OracleInterface(deployedOracle);\n        uint btcToUsdPrice = oracle.getBtcToUsdPrice();\n        return _usdAmount.mul(10000000).div(btcToUsdPrice); //divide the result by 100000, for 5num floating precision\n    }\n    \n    function convertEthToBtc(uint _ethAmount) external view usingOracle returns (uint) {\n        OracleInterface oracle = OracleInterface(deployedOracle);\n        uint ethToUsdPrice = oracle.getEthToUsdPrice();\n        uint btcToUsdPrice = oracle.getBtcToUsdPrice();\n        uint ethToBtcPrice = ethToUsdPrice.div(btcToUsdPrice);\n        return _ethAmount.mul(10000000).mul(ethToBtcPrice); //divide the result by 100000, for 5num floating precision\n    }\n\n    function convertBtcToEth(uint _btcAmount) external view usingOracle returns (uint) {\n        OracleInterface oracle = OracleInterface(deployedOracle);\n        uint ethToUsdPrice = oracle.getEthToUsdPrice();\n        uint btcToUsdPrice = oracle.getBtcToUsdPrice();\n        uint btcToEthPrice = btcToUsdPrice.div(ethToUsdPrice);\n        return _btcAmount.mul(10000000).mul(btcToEthPrice); //divide the result by 100000, for 5num floating precision\n    }\n    \n    function getEthToUsdPrice() external view usingOracle returns(uint) {\n        OracleInterface oracle = OracleInterface(deployedOracle);\n        return oracle.getEthToUsdPrice();\n    }\n    \n    function getBtcToUsdPrice() external view returns(uint) {\n        OracleInterface oracle = OracleInterface(deployedOracle);\n        return oracle.getBtcToUsdPrice();\n    }\n    \n    modifier usingOracle {\n        require(deployedOracle != address(0), \"Set the deployed Oracle Contract address\");\n        _;\n    }\n}\n\n",
  "sourcePath": "/Users/Amir/Desktop/Oracle/contracts/SimpleConverter.sol",
  "compiler": {
    "name": "solc",
    "version": "0.4.24+commit.e67f0147.Emscripten.clang"
  },
  "schemaVersion": "2.0.1",
  "updatedAt": "2018-11-08T13:12:18.863Z"
}